:10000000E728FF3FFF3FFF3F0313831205168512CA
:100010004130FB00FF30FA00FB0B0F281228FA0BCF
:100020000F280C28C330FA00FA0B1428000085169C
:100030004130FB00FF30FA00FB0B1F282228FA0B8F
:100040001F281C28C330FA00FA0B24280000851250
:100050008230FB00FF30FA00FB0B2F283228FA0B0E
:100060002F282C288730FA00FA0B34280000851638
:100070008230FB00FF30FA00FB0B3F284228FA0BCE
:100080003F283C288730FA00FA0B442800008512EC
:10009000C330FB00FF30FA00FB0B4F285228FA0B4D
:1000A0004F284C284B30FA00FA0B542800008516D4
:1000B000C330FB00FF30FA00FB0B5F286228FA0B0D
:1000C0005F285C284B30FA00FA0B64280000851288
:1000D0000230FC00FF30FB00FF30FA00FC0B7128FF
:1000E0007828FB0B74287728FA0B742871286E285F
:1000F0000630FB00FF30FA00FB0B7F288228FA0B4A
:100100007F287C280A30FA00FA0B842885160230F2
:10011000FC00FF30FB00FF30FA00FC0B9028972812
:10012000FB0B93289628FA0B932890288D280630ED
:10013000FB00FF30FA00FB0B9E28A128FA0B9E283B
:100140009B280A30FA00FA0BA32885120230FC0023
:10015000FF30FB00FF30FA00FC0BAF28B628FB0B8A
:10016000B228B528FA0BB228AF28AC284630FB00DD
:10017000FF30FA00FB0BBD28C028FA0BBD28BA28B7
:10018000CF30FA00FA0BC228000085160230FC00BE
:10019000FF30FB00FF30FA00FC0BCF28D628FB0B0A
:1001A000D228D528FA0BD228CF28CC284630FB00FD
:1001B000FF30FA00FB0BDD28E028FA0BDD28DA28F7
:1001C000CF30FA00FA0BE228000005120800E32401
:1001D00004206F24BA240A30A80026220D30A8007B
:1001E00026222608773A031D03290130A700270895
:1001F000053C031C0229D8222708053A03190229C5
:10020000A70AF7285D292608733A031D152901302E
:10021000A7002708053C031C142948232708053A92
:1002200003191429A70A09295D292608643A031D20
:1002300027290130A7002708013C031C2629B823E1
:100240002708013A03192629A70A1B295D29260830
:10025000613A031D39290130A7002708013C031C1E
:1002600038293A242708013A03193829A70A2D29E1
:100270005D292608713A031D4B290130A700270884
:10028000013C031C4A29FA232708013A03194A2989
:10029000A70A3F295D292608653A031D5D2901301B
:1002A000A7002708013C031C5C2987242708013A82
:1002B00003195C29A70A51295D292D30A80026229F
:1002C0002608A80026220A30A80026220D30A80001
:1002D00026223E30A8002622EA286D290313831225
:1002E000051685120330FC00FF30FB00FF30FA00DA
:1002F000FC0B7B298229FB0B7E298129FA0B7E29A5
:100300007B2978298C30FB00FF30FA00FB0B892910
:100310008C29FA0B89298629A130FA00FA0B8E293B
:10032000000085160330FC00FF30FB00FF30FA00B0
:10033000FC0B9B29A229FB0B9E29A129FA0B9E29C4
:100340009B2998290B30FB00FF30FA00FB0BA929F1
:10035000AC29FA0BA929A6291730FA00FA0BAE2905
:1003600000000000000085120230FC00FF30FB009E
:10037000FF30FA00FC0BBD29C429FB0BC029C3299F
:10038000FA0BC029BD29BA298730FB00FF30FA00DB
:10039000FB0BCB29CE29FA0BCB29C8299330FA00C5
:1003A000FA0BD029000085160230FC00FF30FB005C
:1003B000FF30FA00FC0BDD29E429FB0BE029E329DF
:1003C000FA0BE029DD29DA294630FB00FF30FA007C
:1003D000FB0BEB29EE29FA0BEB29E829CF30FA00C9
:1003E000FA0BF02900008512C330FB00FF30FA0041
:1003F000FB0BFB29FE29FA0BFB29F8294B30FA00ED
:10040000FA0B002A000085168230FB00FF30FA004C
:10041000FB0B0B2A0E2AFA0B0B2A082A8730FA004C
:10042000FA0B102A000085128230FB00FF30FA0020
:10043000FB0B1B2A1E2AFA0B1B2A182A8730FA00EC
:10044000FA0B202A000085160512080003138312F8
:100450002008A806240884002008003A031D322A38
:100460000013332A00172208AA00F22428080319CF
:10047000392A0013281800172208AA00F224280895
:100480000319422A0013A81800172208AA00F22410
:10049000280803194B2A0013281900172208AA005C
:1004A000F22428080319542A0013A8190017220857
:1004B000AA00F224280803195D2A0013281A00173D
:1004C0002208AA00F22428080319662A0013A81A91
:1004D00000172208AA00F224280803196F2A001323
:1004E000281B00172208AA00F22428080319782ADA
:1004F0000013A81B00172208AA00F2242008003AC3
:10050000031D842A0017852A00132208AA00F2245A
:10051000080003138312280884002808840080013F
:1005200024088400A9012008003A031D9A2A801B90
:10053000972A9C2A801F9A2A2308AA00F2242208BC
:10054000AA00F224801B29142208AA00F224801B8E
:10055000A9142208AA00F224801B29152208AA0047
:10056000F224801BA9152208AA00F224801B291658
:100570002208AA00F224801BA9162208AA00F2244D
:10058000801B29172208AA00F224801BA917200823
:10059000A9062208AA00F224801FCF2AD52A2808FB
:1005A000840028088400FF3080002908F00008003B
:1005B0000313831286140430FB00FF30FA00FB0B98
:1005C000E22AE52AFA0BE22ADF2AE230FA00FA0BE5
:1005D000E72A0D30FB00FF30FA00FB0BF02AF32A6C
:1005E000FA0BF02AED2AF330FA00FA0BF52A000094
:1005F00086106F30FB00FF30FA00FB0B002B032B43
:10060000FA0B002BFD2A1830FA00FA0B052B00001C
:1006100000000330FB00FF30FA00FB0B102B132B04
:10062000FA0B102B0D2B9630FA00FA0B152B061433
:100630000430FB00FF30FA00FB0B1F2B222BFA0BC0
:100640001F2B1C2B5C30FA00FA0B242B000000003F
:1006500006107C30FB00FF30FA00FB0B302B332BF5
:10066000FA0B302B2D2B0C30FA00FA0B352B000037
:1006700000000430FB00FF30FA00FB0B402B432B43
:10068000FA0B402B3D2B1A30FA00FA0B452B0800D1
:100690000313831206140430FB00FF30FA00FB0B37
:1006A000522B552BFA0B522B4F2BE230FA00FA0B40
:1006B000572B0D30FB00FF30FA00FB0B602B632B38
:1006C000FA0B602B5D2BF330FA00FA0B652B000060
:1006D00006106F30FB00FF30FA00FB0B702B732B02
:1006E000FA0B702B6D2B1830FA00FA0B752B0000EB
:1006F00000000330FB00FF30FA00FB0B802B832B44
:10070000FA0B802B7D2B9630FA00FA0B852B861482
:100710000430FB00FF30FA00FB0B8F2B922BFA0BFF
:100720008F2B8C2B5C30FA00FA0B942B000000000E
:1007300086107C30FB00FF30FA00FB0BA02BA32BB4
:10074000FA0BA02B9D2B0C30FA00FA0BA52B000006
:1007500000000430FB00FF30FA00FB0BB02BB32B82
:10076000FA0BB02BAD2B1A30FA00FA0BB52B0800A0
:1007700003138312061486140430FB00FF30FA00C2
:10078000FB0BC32BC62BFA0BC32BC02BE230FA009A
:10079000FA0BC82B0D30FB00FF30FA00FB0BD12BFE
:1007A000D42BFA0BD12BCE2BF330FA00FA0BD62B2D
:1007B0000000061086106F30FB00FF30FA00FB0BC4
:1007C000E22BE52BFA0BE22BDF2B1830FA00FA0BA9
:1007D000E72B000000000330FB00FF30FA00FB0BAA
:1007E000F22BF52BFA0BF22BEF2B9630FA00FA0BCB
:1007F000F72B08000313831205140430FB00FF30AD
:10080000FA00FB0B042C072CFA0B042C012CE23011
:10081000FA00FA0B092C0D30FB00FF30FA00FB0B3D
:10082000122C152CFA0B122C0F2CF330FA00FA0BA9
:10083000172C000005106F30FB00FF30FA00FB0B97
:10084000222C252CFA0B222C1F2C1830FA00FA0B24
:10085000272C000000000330FB00FF30FA00FB0BE8
:10086000322C352CFA0B322C2F2C9630FA00FA0B46
:10087000372C080003138312061486140430FB007F
:10088000FF30FA00FB0B452C482CFA0B452C422C70
:100890005C30FA00FA0B4A2C0000000006108610AB
:1008A0007C30FB00FF30FA00FB0B572C5A2CFA0B64
:1008B000572C542C0C30FA00FA0B5C2C0000000072
:1008C0000430FB00FF30FA00FB0B672C6A2CFA0B9C
:1008D000672C642C1A30FA00FA0B6C2C08004C3090
:1008E00003138312A80026224930A8002622533081
:1008F000A80026225430A80026224F30A800262225
:100900000A30A80026220D30A80026220800031372
:10091000831205140430FB00FF30FA00FB0B912C0E
:10092000942CFA0B912C8E2C5C30FA00FA0B962C3E
:100930000000000005107C30FB00FF30FA00FB0BCC
:10094000A22CA52CFA0BA22C9F2C0C30FA00FA0B2F
:10095000A72C000000000430FB00FF30FA00FB0B66
:10096000B22CB52CFA0BB22CAF2C1A30FA00FA0BC1
:10097000B72C08000313831205160130A500A60149
:100980002530A80089227008A6002508003A031D1A
:10099000CA2CCB2CC02C0512080003138312280884
:1009A000A2002808A300A30CA31324088400841722
:1009B0008017001384132008003A031DE12C001750
:1009C000E22C001308000313831685018601803092
:1009D000870007308312A400D030A800A001A10135
:1009E000CD24080003138312AA03AA032A08003C9B
:1009F0000318FF2CAA03000000000000F62C0000E2
:100A0000000000000800FF3FFF3FFF3FFF3FFF3FA8
:02400E003B3F36
:00000001FF
